{
  "abi": [
    {
      "inputs": [],
      "stateMutability": "nonpayable",
      "type": "constructor"
    },
    {
      "anonymous": false,
      "inputs": [
        {
          "indexed": true,
          "internalType": "address",
          "name": "owner",
          "type": "address"
        }
      ],
      "name": "AddedOwner",
      "type": "event"
    },
    {
      "anonymous": false,
      "inputs": [
        {
          "indexed": true,
          "internalType": "bytes32",
          "name": "approvedHash",
          "type": "bytes32"
        },
        {
          "indexed": true,
          "internalType": "address",
          "name": "owner",
          "type": "address"
        }
      ],
      "name": "ApproveHash",
      "type": "event"
    },
    {
      "anonymous": false,
      "inputs": [
        {
          "indexed": true,
          "internalType": "address",
          "name": "handler",
          "type": "address"
        }
      ],
      "name": "ChangedFallbackHandler",
      "type": "event"
    },
    {
      "anonymous": false,
      "inputs": [
        {
          "indexed": true,
          "internalType": "address",
          "name": "guard",
          "type": "address"
        }
      ],
      "name": "ChangedGuard",
      "type": "event"
    },
    {
      "anonymous": false,
      "inputs": [
        {
          "indexed": false,
          "internalType": "uint256",
          "name": "threshold",
          "type": "uint256"
        }
      ],
      "name": "ChangedThreshold",
      "type": "event"
    },
    {
      "anonymous": false,
      "inputs": [
        {
          "indexed": true,
          "internalType": "address",
          "name": "module",
          "type": "address"
        }
      ],
      "name": "DisabledModule",
      "type": "event"
    },
    {
      "anonymous": false,
      "inputs": [
        {
          "indexed": true,
          "internalType": "address",
          "name": "module",
          "type": "address"
        }
      ],
      "name": "EnabledModule",
      "type": "event"
    },
    {
      "anonymous": false,
      "inputs": [
        {
          "indexed": true,
          "internalType": "bytes32",
          "name": "txHash",
          "type": "bytes32"
        },
        {
          "indexed": false,
          "internalType": "uint256",
          "name": "payment",
          "type": "uint256"
        }
      ],
      "name": "ExecutionFailure",
      "type": "event"
    },
    {
      "anonymous": false,
      "inputs": [
        {
          "indexed": true,
          "internalType": "address",
          "name": "module",
          "type": "address"
        }
      ],
      "name": "ExecutionFromModuleFailure",
      "type": "event"
    },
    {
      "anonymous": false,
      "inputs": [
        {
          "indexed": true,
          "internalType": "address",
          "name": "module",
          "type": "address"
        }
      ],
      "name": "ExecutionFromModuleSuccess",
      "type": "event"
    },
    {
      "anonymous": false,
      "inputs": [
        {
          "indexed": true,
          "internalType": "bytes32",
          "name": "txHash",
          "type": "bytes32"
        },
        {
          "indexed": false,
          "internalType": "uint256",
          "name": "payment",
          "type": "uint256"
        }
      ],
      "name": "ExecutionSuccess",
      "type": "event"
    },
    {
      "anonymous": false,
      "inputs": [
        {
          "indexed": true,
          "internalType": "address",
          "name": "owner",
          "type": "address"
        }
      ],
      "name": "RemovedOwner",
      "type": "event"
    },
    {
      "anonymous": false,
      "inputs": [
        {
          "indexed": true,
          "internalType": "address",
          "name": "sender",
          "type": "address"
        },
        {
          "indexed": false,
          "internalType": "uint256",
          "name": "value",
          "type": "uint256"
        }
      ],
      "name": "SafeReceived",
      "type": "event"
    },
    {
      "anonymous": false,
      "inputs": [
        {
          "indexed": true,
          "internalType": "address",
          "name": "initiator",
          "type": "address"
        },
        {
          "indexed": false,
          "internalType": "address[]",
          "name": "owners",
          "type": "address[]"
        },
        {
          "indexed": false,
          "internalType": "uint256",
          "name": "threshold",
          "type": "uint256"
        },
        {
          "indexed": false,
          "internalType": "address",
          "name": "initializer",
          "type": "address"
        },
        {
          "indexed": false,
          "internalType": "address",
          "name": "fallbackHandler",
          "type": "address"
        }
      ],
      "name": "SafeSetup",
      "type": "event"
    },
    {
      "anonymous": false,
      "inputs": [
        {
          "indexed": true,
          "internalType": "bytes32",
          "name": "msgHash",
          "type": "bytes32"
        }
      ],
      "name": "SignMsg",
      "type": "event"
    },
    {
      "stateMutability": "nonpayable",
      "type": "fallback"
    },
    {
      "inputs": [],
      "name": "VERSION",
      "outputs": [
        {
          "internalType": "string",
          "name": "",
          "type": "string"
        }
      ],
      "stateMutability": "view",
      "type": "function"
    },
    {
      "inputs": [
        {
          "internalType": "address",
          "name": "owner",
          "type": "address"
        },
        {
          "internalType": "uint256",
          "name": "_threshold",
          "type": "uint256"
        }
      ],
      "name": "addOwnerWithThreshold",
      "outputs": [],
      "stateMutability": "nonpayable",
      "type": "function"
    },
    {
      "inputs": [
        {
          "internalType": "bytes32",
          "name": "hashToApprove",
          "type": "bytes32"
        }
      ],
      "name": "approveHash",
      "outputs": [],
      "stateMutability": "nonpayable",
      "type": "function"
    },
    {
      "inputs": [
        {
          "internalType": "address",
          "name": "",
          "type": "address"
        },
        {
          "internalType": "bytes32",
          "name": "",
          "type": "bytes32"
        }
      ],
      "name": "approvedHashes",
      "outputs": [
        {
          "internalType": "uint256",
          "name": "",
          "type": "uint256"
        }
      ],
      "stateMutability": "view",
      "type": "function"
    },
    {
      "inputs": [
        {
          "internalType": "uint256",
          "name": "_threshold",
          "type": "uint256"
        }
      ],
      "name": "changeThreshold",
      "outputs": [],
      "stateMutability": "nonpayable",
      "type": "function"
    },
    {
      "inputs": [
        {
          "internalType": "address",
          "name": "executor",
          "type": "address"
        },
        {
          "internalType": "bytes32",
          "name": "dataHash",
          "type": "bytes32"
        },
        {
          "internalType": "bytes",
          "name": "signatures",
          "type": "bytes"
        },
        {
          "internalType": "uint256",
          "name": "requiredSignatures",
          "type": "uint256"
        }
      ],
      "name": "checkNSignatures",
      "outputs": [],
      "stateMutability": "view",
      "type": "function"
    },
    {
      "inputs": [
        {
          "internalType": "bytes32",
          "name": "dataHash",
          "type": "bytes32"
        },
        {
          "internalType": "bytes",
          "name": "signatures",
          "type": "bytes"
        }
      ],
      "name": "checkSignatures",
      "outputs": [],
      "stateMutability": "view",
      "type": "function"
    },
    {
      "inputs": [
        {
          "internalType": "address",
          "name": "prevModule",
          "type": "address"
        },
        {
          "internalType": "address",
          "name": "module",
          "type": "address"
        }
      ],
      "name": "disableModule",
      "outputs": [],
      "stateMutability": "nonpayable",
      "type": "function"
    },
    {
      "inputs": [],
      "name": "domainSeparator",
      "outputs": [
        {
          "internalType": "bytes32",
          "name": "",
          "type": "bytes32"
        }
      ],
      "stateMutability": "view",
      "type": "function"
    },
    {
      "inputs": [
        {
          "internalType": "address",
          "name": "module",
          "type": "address"
        }
      ],
      "name": "enableModule",
      "outputs": [],
      "stateMutability": "nonpayable",
      "type": "function"
    },
    {
      "inputs": [
        {
          "internalType": "address",
          "name": "to",
          "type": "address"
        },
        {
          "internalType": "uint256",
          "name": "value",
          "type": "uint256"
        },
        {
          "internalType": "bytes",
          "name": "data",
          "type": "bytes"
        },
        {
          "internalType": "enum Enum.Operation",
          "name": "operation",
          "type": "uint8"
        },
        {
          "internalType": "uint256",
          "name": "safeTxGas",
          "type": "uint256"
        },
        {
          "internalType": "uint256",
          "name": "baseGas",
          "type": "uint256"
        },
        {
          "internalType": "uint256",
          "name": "gasPrice",
          "type": "uint256"
        },
        {
          "internalType": "address",
          "name": "gasToken",
          "type": "address"
        },
        {
          "internalType": "address payable",
          "name": "refundReceiver",
          "type": "address"
        },
        {
          "internalType": "bytes",
          "name": "signatures",
          "type": "bytes"
        }
      ],
      "name": "execTransaction",
      "outputs": [
        {
          "internalType": "bool",
          "name": "success",
          "type": "bool"
        }
      ],
      "stateMutability": "payable",
      "type": "function"
    },
    {
      "inputs": [
        {
          "internalType": "address",
          "name": "to",
          "type": "address"
        },
        {
          "internalType": "uint256",
          "name": "value",
          "type": "uint256"
        },
        {
          "internalType": "bytes",
          "name": "data",
          "type": "bytes"
        },
        {
          "internalType": "enum Enum.Operation",
          "name": "operation",
          "type": "uint8"
        }
      ],
      "name": "execTransactionFromModule",
      "outputs": [
        {
          "internalType": "bool",
          "name": "success",
          "type": "bool"
        }
      ],
      "stateMutability": "nonpayable",
      "type": "function"
    },
    {
      "inputs": [
        {
          "internalType": "address",
          "name": "to",
          "type": "address"
        },
        {
          "internalType": "uint256",
          "name": "value",
          "type": "uint256"
        },
        {
          "internalType": "bytes",
          "name": "data",
          "type": "bytes"
        },
        {
          "internalType": "enum Enum.Operation",
          "name": "operation",
          "type": "uint8"
        }
      ],
      "name": "execTransactionFromModuleReturnData",
      "outputs": [
        {
          "internalType": "bool",
          "name": "success",
          "type": "bool"
        },
        {
          "internalType": "bytes",
          "name": "returnData",
          "type": "bytes"
        }
      ],
      "stateMutability": "nonpayable",
      "type": "function"
    },
    {
      "inputs": [
        {
          "internalType": "address",
          "name": "start",
          "type": "address"
        },
        {
          "internalType": "uint256",
          "name": "pageSize",
          "type": "uint256"
        }
      ],
      "name": "getModulesPaginated",
      "outputs": [
        {
          "internalType": "address[]",
          "name": "array",
          "type": "address[]"
        },
        {
          "internalType": "address",
          "name": "next",
          "type": "address"
        }
      ],
      "stateMutability": "view",
      "type": "function"
    },
    {
      "inputs": [],
      "name": "getOwners",
      "outputs": [
        {
          "internalType": "address[]",
          "name": "",
          "type": "address[]"
        }
      ],
      "stateMutability": "view",
      "type": "function"
    },
    {
      "inputs": [
        {
          "internalType": "uint256",
          "name": "offset",
          "type": "uint256"
        },
        {
          "internalType": "uint256",
          "name": "length",
          "type": "uint256"
        }
      ],
      "name": "getStorageAt",
      "outputs": [
        {
          "internalType": "bytes",
          "name": "",
          "type": "bytes"
        }
      ],
      "stateMutability": "view",
      "type": "function"
    },
    {
      "inputs": [],
      "name": "getThreshold",
      "outputs": [
        {
          "internalType": "uint256",
          "name": "",
          "type": "uint256"
        }
      ],
      "stateMutability": "view",
      "type": "function"
    },
    {
      "inputs": [
        {
          "internalType": "address",
          "name": "to",
          "type": "address"
        },
        {
          "internalType": "uint256",
          "name": "value",
          "type": "uint256"
        },
        {
          "internalType": "bytes",
          "name": "data",
          "type": "bytes"
        },
        {
          "internalType": "enum Enum.Operation",
          "name": "operation",
          "type": "uint8"
        },
        {
          "internalType": "uint256",
          "name": "safeTxGas",
          "type": "uint256"
        },
        {
          "internalType": "uint256",
          "name": "baseGas",
          "type": "uint256"
        },
        {
          "internalType": "uint256",
          "name": "gasPrice",
          "type": "uint256"
        },
        {
          "internalType": "address",
          "name": "gasToken",
          "type": "address"
        },
        {
          "internalType": "address",
          "name": "refundReceiver",
          "type": "address"
        },
        {
          "internalType": "uint256",
          "name": "_nonce",
          "type": "uint256"
        }
      ],
      "name": "getTransactionHash",
      "outputs": [
        {
          "internalType": "bytes32",
          "name": "",
          "type": "bytes32"
        }
      ],
      "stateMutability": "view",
      "type": "function"
    },
    {
      "inputs": [
        {
          "internalType": "address",
          "name": "module",
          "type": "address"
        }
      ],
      "name": "isModuleEnabled",
      "outputs": [
        {
          "internalType": "bool",
          "name": "",
          "type": "bool"
        }
      ],
      "stateMutability": "view",
      "type": "function"
    },
    {
      "inputs": [
        {
          "internalType": "address",
          "name": "owner",
          "type": "address"
        }
      ],
      "name": "isOwner",
      "outputs": [
        {
          "internalType": "bool",
          "name": "",
          "type": "bool"
        }
      ],
      "stateMutability": "view",
      "type": "function"
    },
    {
      "inputs": [],
      "name": "nonce",
      "outputs": [
        {
          "internalType": "uint256",
          "name": "",
          "type": "uint256"
        }
      ],
      "stateMutability": "view",
      "type": "function"
    },
    {
      "inputs": [
        {
          "internalType": "address",
          "name": "prevOwner",
          "type": "address"
        },
        {
          "internalType": "address",
          "name": "owner",
          "type": "address"
        },
        {
          "internalType": "uint256",
          "name": "_threshold",
          "type": "uint256"
        }
      ],
      "name": "removeOwner",
      "outputs": [],
      "stateMutability": "nonpayable",
      "type": "function"
    },
    {
      "inputs": [
        {
          "internalType": "address",
          "name": "handler",
          "type": "address"
        }
      ],
      "name": "setFallbackHandler",
      "outputs": [],
      "stateMutability": "nonpayable",
      "type": "function"
    },
    {
      "inputs": [
        {
          "internalType": "address",
          "name": "guard",
          "type": "address"
        }
      ],
      "name": "setGuard",
      "outputs": [],
      "stateMutability": "nonpayable",
      "type": "function"
    },
    {
      "inputs": [
        {
          "internalType": "address[]",
          "name": "_owners",
          "type": "address[]"
        },
        {
          "internalType": "uint256",
          "name": "_threshold",
          "type": "uint256"
        },
        {
          "internalType": "address",
          "name": "to",
          "type": "address"
        },
        {
          "internalType": "bytes",
          "name": "data",
          "type": "bytes"
        },
        {
          "internalType": "address",
          "name": "fallbackHandler",
          "type": "address"
        },
        {
          "internalType": "address",
          "name": "paymentToken",
          "type": "address"
        },
        {
          "internalType": "uint256",
          "name": "payment",
          "type": "uint256"
        },
        {
          "internalType": "address payable",
          "name": "paymentReceiver",
          "type": "address"
        }
      ],
      "name": "setup",
      "outputs": [],
      "stateMutability": "nonpayable",
      "type": "function"
    },
    {
      "inputs": [
        {
          "internalType": "bytes32",
          "name": "",
          "type": "bytes32"
        }
      ],
      "name": "signedMessages",
      "outputs": [
        {
          "internalType": "uint256",
          "name": "",
          "type": "uint256"
        }
      ],
      "stateMutability": "view",
      "type": "function"
    },
    {
      "inputs": [
        {
          "internalType": "address",
          "name": "targetContract",
          "type": "address"
        },
        {
          "internalType": "bytes",
          "name": "calldataPayload",
          "type": "bytes"
        }
      ],
      "name": "simulateAndRevert",
      "outputs": [],
      "stateMutability": "nonpayable",
      "type": "function"
    },
    {
      "inputs": [
        {
          "internalType": "address",
          "name": "prevOwner",
          "type": "address"
        },
        {
          "internalType": "address",
          "name": "oldOwner",
          "type": "address"
        },
        {
          "internalType": "address",
          "name": "newOwner",
          "type": "address"
        }
      ],
      "name": "swapOwner",
      "outputs": [],
      "stateMutability": "nonpayable",
      "type": "function"
    },
    {
      "stateMutability": "payable",
      "type": "receive"
    }
  ],
  "bytecode": {
    "object": "0x608060405234801561001057600080fd5b5060016004556131ff806100256000396000f3fe6080604052600436106101bb5760003560e01c8063b4faba09116100ec578063e318b52b1161008a578063f08a032311610064578063f08a0323146105d2578063f698da25146105f2578063f8dc5dd914610607578063ffa1ad7414610627576101f7565b8063e318b52b1461057d578063e75235b81461059d578063ed516d51146105b2576101f7565b8063d4d9bdcd116100c6578063d4d9bdcd146104fd578063d8d11f781461051d578063e009cfde1461053d578063e19a9dd91461055d576101f7565b8063b4faba091461048f578063b63e800d146104af578063cc2f8452146104cf576101f7565b80635ae6bd37116101595780636a761202116101335780636a7612021461040c5780637d8329741461041f578063a0e67e2b14610457578063affed0e014610479576101f7565b80635ae6bd3714610391578063610b5925146103cc578063694e80c3146103ec576101f7565b80632f54bf6e116101955780632f54bf6e146102f6578063468721a7146103165780635229073f146103365780635624b25b14610364576101f7565b80630d582f131461027f5780631fcac7f3146102a15780632d9ad53d146102c1576101f7565b366101f75760405134815233907f3d0ce9bfc3ed7d6862dbb28b2dea94561fe714a1b4d019aa8af39730d1ad7c3d9060200160405180910390a2005b34801561020357600080fd5b507f6c9a6c4a39284e37ed1cf53d337577d14212a4870fb976a4366c693b939918d580548061022e57005b60408051368101909152366000823760408051601481019091523360601b9052600080366014018382865af191505061026d3d60408051918201905290565b3d6000823e8161027b573d81fd5b3d81f35b34801561028b57600080fd5b5061029f61029a3660046126d4565b610658565b005b3480156102ad57600080fd5b5061029f6102bc3660046127a3565b6107b0565b3480156102cd57600080fd5b506102e16102dc366004612804565b610ad9565b60405190151581526020015b60405180910390f35b34801561030257600080fd5b506102e1610311366004612804565b610b14565b34801561032257600080fd5b506102e1610331366004612830565b610b4c565b34801561034257600080fd5b50610356610351366004612830565b610d50565b6040516102ed9291906128e0565b34801561037057600080fd5b5061038461037f3660046128fb565b610d86565b6040516102ed919061291d565b34801561039d57600080fd5b506103be6103ac366004612930565b60076020526000908152604090205481565b6040519081526020016102ed565b3480156103d857600080fd5b5061029f6103e7366004612804565b610e0c565b3480156103f857600080fd5b5061029f610407366004612930565b610f45565b6102e161041a366004612992565b610fe3565b34801561042b57600080fd5b506103be61043a3660046126d4565b600860209081526000928352604080842090915290825290205481565b34801561046357600080fd5b5061046c611320565b6040516102ed9190612aaf565b34801561048557600080fd5b506103be60055481565b34801561049b57600080fd5b5061029f6104aa366004612ac2565b611411565b3480156104bb57600080fd5b5061029f6104ca366004612b12565b611438565b3480156104db57600080fd5b506104ef6104ea3660046126d4565b61153a565b6040516102ed929190612c07565b34801561050957600080fd5b5061029f610518366004612930565b6116f6565b34801561052957600080fd5b506103be610538366004612c31565b61178b565b34801561054957600080fd5b5061029f610558366004612cf2565b6117b8565b34801561056957600080fd5b5061029f610578366004612804565b6118da565b34801561058957600080fd5b5061029f610598366004612d2b565b6119f0565b3480156105a957600080fd5b506004546103be565b3480156105be57600080fd5b5061029f6105cd366004612d76565b611bcb565b3480156105de57600080fd5b5061029f6105ed366004612804565b611c14565b3480156105fe57600080fd5b506103be611c5c565b34801561061357600080fd5b5061029f610622366004612da7565b611cb6565b34801561063357600080fd5b5061038460405180604001604052806005815260200164312e342e3160d81b81525081565b610660611e1c565b6001600160a01b0382161580159061068257506001600160a01b038216600114155b801561069757506001600160a01b0382163014155b6106bc5760405162461bcd60e51b81526004016106b390612de8565b60405180910390fd5b6001600160a01b0382811660009081526002602052604090205416156106f45760405162461bcd60e51b81526004016106b390612e07565b60026020527fe90b7bceb6e7df5418fb78d8ee546e97c83a08bbccc01a0644d599ccd2a7c2e080546001600160a01b038481166000818152604081208054939094166001600160a01b03199384161790935560018352835490911617909155600380549161076183612e3c565b90915550506040516001600160a01b038316907f9465fa0c962cc76958e6373a993326400c1c94f8be2fe3a952adfa7f60b2ea2690600090a280600454146107ac576107ac81610f45565b5050565b6107bb816041611e55565b825110156107f35760405162461bcd60e51b8152602060048201526005602482015264047533032360dc1b60448201526064016106b3565b6000808060008060005b86811015610acd576041810288016020810151604082015160609092015160001a95509350915060ff841660000361088757919350839161083f876041611e55565b8210156108765760405162461bcd60e51b8152602060048201526005602482015264475330323160d81b60448201526064016106b3565b610882858a8a85611e91565b610a33565b8360ff1660010361090e578260001c9450846001600160a01b03168a6001600160a01b031614806108da57506001600160a01b03851660009081526008602090815260408083208c845290915290205415155b6108825760405162461bcd60e51b8152602060048201526005602482015264475330323560d81b60448201526064016106b3565b601e8460ff1611156109d3576040517f19457468657265756d205369676e6564204d6573736167653a0a3332000000006020820152603c81018a9052600190605c01604051602081830303815290604052805190602001206004866109739190612e55565b6040805160008152602081018083529390935260ff90911690820152606081018590526080810184905260a0016020604051602081039080840390855afa1580156109c2573d6000803e3d6000fd5b505050602060405103519450610a33565b6040805160008152602081018083528b905260ff861691810191909152606081018490526080810183905260019060a0016020604051602081039080840390855afa158015610a26573d6000803e3d6000fd5b5050506020604051035194505b856001600160a01b0316856001600160a01b0316118015610a6d57506001600160a01b038581166000908152600260205260409020541615155b8015610a8357506001600160a01b038516600114155b610ab75760405162461bcd60e51b815260206004820152600560248201526423a998191b60d91b60448201526064016106b3565b8495508080610ac590612e3c565b9150506107fd565b50505050505050505050565b600060016001600160a01b03831614801590610b0e57506001600160a01b038281166000908152600160205260409020541615155b92915050565b60006001600160a01b038216600114801590610b0e5750506001600160a01b0390811660009081526002602052604090205416151590565b600033600114801590610b765750336000908152600160205260409020546001600160a01b031615155b610baa5760405162461bcd60e51b815260206004820152600560248201526411d4cc4c0d60da1b60448201526064016106b3565b6000610bd47f4a204f620c8c5ccdca3fd54d003badd85ba500436a431f0cbda4f558c93c34c85490565b905060006001600160a01b03821615610c615760405163394614b960e11b81526001600160a01b0383169063728c297290610c1b908a908a908a908a903390600401612ea6565b6020604051808303816000875af1158015610c3a573d6000803e3d6000fd5b505050506040513d601f19601f82011682018060405250810190610c5e9190612ef0565b90505b610c7087878787600019611ff3565b92506001600160a01b03821615610ce457604051631264e26d60e31b81526004810182905283151560248201526001600160a01b03831690639327136890604401600060405180830381600087803b158015610ccb57600080fd5b505af1158015610cdf573d6000803e3d6000fd5b505050505b8215610d1a5760405133907f6895c13664aa4f67288b25d7a21d7aaa34916e355fb9b6fae0a139a9085becb890600090a2610d46565b60405133907facd2c8702804128fdb0db2bb49f6d127dd0181c13fd45dbfe16de0930e2bd37590600090a25b5050949350505050565b60006060610d6086868686610b4c565b915060405160203d0181016040523d81523d6000602083013e8091505094509492505050565b60606000610d95836020612f09565b67ffffffffffffffff811115610dad57610dad612700565b6040519080825280601f01601f191660200182016040528015610dd7576020820181803683370190505b50905060005b83811015610e04578481015460208083028401015280610dfc81612e3c565b915050610ddd565b509392505050565b610e14611e1c565b6001600160a01b03811615801590610e3657506001600160a01b038116600114155b610e6a5760405162461bcd60e51b8152602060048201526005602482015264475331303160d81b60448201526064016106b3565b6001600160a01b038181166000908152600160205260409020541615610eba5760405162461bcd60e51b815260206004820152600560248201526423a998981960d91b60448201526064016106b3565b600160208190527fcc69885fda6bcc1a4ace058b4a62bf5e179ea78fd58a1ccd71c22cc9b688792f80546001600160a01b03848116600081815260408082208054949095166001600160a01b031994851617909455948552835490911681179092555190917fecdf3a3effea5783a3c4c2140e677577666428d44ed9d474a0b3a4c9943f844091a250565b610f4d611e1c565b600354811115610f6f5760405162461bcd60e51b81526004016106b390612f20565b6001811015610fa85760405162461bcd60e51b815260206004820152600560248201526423a999181960d91b60448201526064016106b3565b60048190556040518181527f610f7ff2b304ae8903c3de74c60c6ab1f7d6226b3f52c5161905bb5ad4039c939060200160405180910390a150565b60008061100f8d8d8d8d8d8d8d8d8d8d6005600081548092919061100690612e3c565b9190505561178b565b905061101b8184611bcb565b60006110457f4a204f620c8c5ccdca3fd54d003badd85ba500436a431f0cbda4f558c93c34c85490565b90506001600160a01b038116156110cb57806001600160a01b03166375f0bb528f8f8f8f8f8f8f8f8f8f8f336040518d63ffffffff1660e01b81526004016110989c9b9a99989796959493929190612f3f565b600060405180830381600087803b1580156110b257600080fd5b505af11580156110c6573d6000803e3d6000fd5b505050505b6110f76110da8a6109c4613004565b603f6110e78c6040612f09565b6110f19190613017565b9061203a565b611103906101f4613004565b5a101561113a5760405162461bcd60e51b8152602060048201526005602482015264047533031360dc1b60448201526064016106b3565b60005a90506111ab8f8f8f8f8080601f016020809104026020016040519081016040528093929190818152602001838380828437600081840152601f19601f820116905080830192505050505050508e8c600014611198578e611ff3565b6109c45a6111a69190613039565b611ff3565b93506111b85a8290612051565b905083806111c557508915155b806111cf57508715155b6112035760405162461bcd60e51b8152602060048201526005602482015264475330313360d81b60448201526064016106b3565b6000881561121b57611218828b8b8b8b612074565b90505b841561126057837f442e715f626346e8c54381002da614f62bee8d27386535b2521ec8540898556e8260405161125391815260200190565b60405180910390a261129b565b837f23428b18acfb3ea64b08dc0c1d296ea9c09702c09083ca5272e64d115b687d238260405161129291815260200190565b60405180910390a25b50506001600160a01b0381161561130f57604051631264e26d60e31b81526004810183905283151560248201526001600160a01b03821690639327136890604401600060405180830381600087803b1580156112f657600080fd5b505af115801561130a573d6000803e3d6000fd5b505050505b50509b9a5050505050505050505050565b6060600060035467ffffffffffffffff81111561133f5761133f612700565b604051908082528060200260200182016040528015611368578160200160208202803683370190505b506001600090815260026020527fe90b7bceb6e7df5418fb78d8ee546e97c83a08bbccc01a0644d599ccd2a7c2e054919250906001600160a01b03165b6001600160a01b03811660011461140957808383815181106113c9576113c961304c565b6001600160a01b0392831660209182029290920181019190915291811660009081526002909252604090912054168161140181612e3c565b9250506113a5565b509092915050565b600080825160208401855af46040518181523d60208201523d6000604083013e60403d0181fd5b6114768a8a808060200260200160405190810160405280939291908181526020018383602002808284376000920191909152508c92506121ac915050565b6001600160a01b0384161561148e5761148e84612392565b6114ce8787878080601f0160208091040260200160405190810160405280939291908181526020018383808284376000920191909152506123f692505050565b81156114e5576114e382600060018685612074565b505b336001600160a01b03167f141df868a6331af528e38c83b7aa03edc19be66e37ae67f9285bf4f8e3c6a1a88b8b8b8b89604051611526959493929190613062565b60405180910390a250505050505050505050565b606060006001600160a01b0384166001148061155a575061155a84610ad9565b61158e5760405162461bcd60e51b8152602060048201526005602482015264475331303560d81b60448201526064016106b3565b600083116115c65760405162461bcd60e51b815260206004820152600560248201526423a998981b60d91b60448201526064016106b3565b8267ffffffffffffffff8111156115df576115df612700565b604051908082528060200260200182016040528015611608578160200160208202803683370190505b506001600160a01b03808616600090815260016020526040812054929450911691505b6001600160a01b0382161580159061164d57506001600160a01b038216600114155b801561165857508381105b156116b357818382815181106116705761167061304c565b6001600160a01b039283166020918202929092018101919091529281166000908152600190935260409092205490911690806116ab81612e3c565b91505061162b565b6001600160a01b0382166001146116eb57826116d0600183613039565b815181106116e0576116e061304c565b602002602001015191505b808352509250929050565b336000908152600260205260409020546001600160a01b03166117435760405162461bcd60e51b8152602060048201526005602482015264047533033360dc1b60448201526064016106b3565b336000818152600860209081526040808320858452909152808220600190555183917ff2a0eb156472d1440255b0d7c1e19cc07115d1051fe605b0dce69acfec884d9c91a350565b60006117a08c8c8c8c8c8c8c8c8c8c8c612528565b8051906020012090509b9a5050505050505050505050565b6117c0611e1c565b6001600160a01b038116158015906117e257506001600160a01b038116600114155b6118165760405162461bcd60e51b8152602060048201526005602482015264475331303160d81b60448201526064016106b3565b6001600160a01b0382811660009081526001602052604090205481169082161461186a5760405162461bcd60e51b8152602060048201526005602482015264475331303360d81b60448201526064016106b3565b6001600160a01b03818116600081815260016020526040808220805487861684528284208054919096166001600160a01b0319918216179095558383528054909416909355915190917faab4fa2b463f581b2b32cb3b7e3b704b9ce37cc209b5fb4d77e593ace405427691a25050565b6118e2611e1c565b6001600160a01b03811615611994576040516301ffc9a760e01b815263128b702960e31b60048201526001600160a01b038216906301ffc9a790602401602060405180830381865afa15801561193c573d6000803e3d6000fd5b505050506040513d601f19601f8201168201806040525081019061196091906130ce565b6119945760405162461bcd60e51b8152602060048201526005602482015264047533330360dc1b60448201526064016106b3565b7f4a204f620c8c5ccdca3fd54d003badd85ba500436a431f0cbda4f558c93c34c88181556040516001600160a01b038316907f1151116914515bc0891ff9047a6cb32cf902546f83066499bcf8ba33d2353fa290600090a25050565b6119f8611e1c565b6001600160a01b03811615801590611a1a57506001600160a01b038116600114155b8015611a2f57506001600160a01b0381163014155b611a4b5760405162461bcd60e51b81526004016106b390612de8565b6001600160a01b038181166000908152600260205260409020541615611a835760405162461bcd60e51b81526004016106b390612e07565b6001600160a01b03821615801590611aa557506001600160a01b038216600114155b611ac15760405162461bcd60e51b81526004016106b390612de8565b6001600160a01b03838116600090815260026020526040902054811690831614611b155760405162461bcd60e51b8152602060048201526005602482015264475332303560d81b60448201526064016106b3565b6001600160a01b03828116600081815260026020526040808220805486861680855283852080549288166001600160a01b03199384161790559589168452828420805482169096179095558383528054909416909355915190917ff8d49fc529812e9a7c5c50e69c20f0dccc0db8fa95c98bc58cc9a4f1c1299eaf91a26040516001600160a01b038216907f9465fa0c962cc76958e6373a993326400c1c94f8be2fe3a952adfa7f60b2ea2690600090a2505050565b60045480611c035760405162461bcd60e51b8152602060048201526005602482015264475330303160d81b60448201526064016106b3565b611c0f338484846107b0565b505050565b611c1c611e1c565b611c2581612392565b6040516001600160a01b038216907f5ac6c46c93c8d0e53714ba3b53db3e7c046da994313d7ed0d192028bc7c228b090600090a250565b604080517f47e79534a245952e8b16893a336b85a3d9ea9fa8c573f3d803afb92a79469218602082015246918101829052306060820152600091906080016040516020818303038152906040528051906020012091505090565b611cbe611e1c565b806001600354611cce9190613039565b1015611cec5760405162461bcd60e51b81526004016106b390612f20565b6001600160a01b03821615801590611d0e57506001600160a01b038216600114155b611d2a5760405162461bcd60e51b81526004016106b390612de8565b6001600160a01b03838116600090815260026020526040902054811690831614611d7e5760405162461bcd60e51b8152602060048201526005602482015264475332303560d81b60448201526064016106b3565b6001600160a01b03828116600081815260026020526040808220805488861684529183208054929095166001600160a01b03199283161790945591815282549091169091556003805491611dd1836130f0565b90915550506040516001600160a01b038316907ff8d49fc529812e9a7c5c50e69c20f0dccc0db8fa95c98bc58cc9a4f1c1299eaf90600090a28060045414611c0f57611c0f81610f45565b333014611e535760405162461bcd60e51b8152602060048201526005602482015264475330333160d81b60448201526064016106b3565b565b600082600003611e6757506000610b0e565b6000611e738385612f09565b905082611e808583613017565b14611e8a57600080fd5b9392505050565b8151611e9e826020612601565b1115611ed45760405162461bcd60e51b815260206004820152600560248201526423a998191960d91b60448201526064016106b3565b60006020828401015190508251611eff82611ef960208661260190919063ffffffff16565b90612601565b1115611f355760405162461bcd60e51b8152602060048201526005602482015264475330323360d81b60448201526064016106b3565b604051630b135d3f60e11b808252848401602001916001600160a01b03881690631626ba7e90611f6b9089908690600401613107565b602060405180830381865afa158015611f88573d6000803e3d6000fd5b505050506040513d601f19601f82011682018060405250810190611fac9190613120565b6001600160e01b03191614611feb5760405162461bcd60e51b815260206004820152600560248201526411d4cc0c8d60da1b60448201526064016106b3565b505050505050565b6000600183600181111561200957612009612e6e565b03612021576000808551602087018986f49050612031565b600080855160208701888a87f190505b95945050505050565b60008183101561204a5781611e8a565b5090919050565b60008282111561206057600080fd5b600061206c8385613039565b949350505050565b6000806001600160a01b0383161561208c578261208e565b325b90506001600160a01b038416612153576120c03a86106120ae573a6120b0565b855b6120ba8989612601565b90611e55565b91506000816001600160a01b03168360405160006040518083038185875af1925050503d806000811461210f576040519150601f19603f3d011682016040523d82523d6000602084013e612114565b606091505b505090508061214d5760405162461bcd60e51b8152602060048201526005602482015264475330313160d81b60448201526064016106b3565b506121a2565b612161856120ba8989612601565b915061216e84828461261d565b6121a25760405162461bcd60e51b815260206004820152600560248201526423a998189960d91b60448201526064016106b3565b5095945050505050565b600454156121e45760405162461bcd60e51b8152602060048201526005602482015264047533230360dc1b60448201526064016106b3565b81518111156122055760405162461bcd60e51b81526004016106b390612f20565b600181101561223e5760405162461bcd60e51b815260206004820152600560248201526423a999181960d91b60448201526064016106b3565b600160005b835181101561235f5760008482815181106122605761226061304c565b6020026020010151905060006001600160a01b0316816001600160a01b03161415801561229757506001600160a01b038116600114155b80156122ac57506001600160a01b0381163014155b80156122ca5750806001600160a01b0316836001600160a01b031614155b6122e65760405162461bcd60e51b81526004016106b390612de8565b6001600160a01b03818116600090815260026020526040902054161561231e5760405162461bcd60e51b81526004016106b390612e07565b6001600160a01b03928316600090815260026020526040902080546001600160a01b031916938216939093179092558061235781612e3c565b915050612243565b506001600160a01b0316600090815260026020526040902080546001600160a01b03191660011790559051600355600455565b306001600160a01b038216036123d25760405162461bcd60e51b8152602060048201526005602482015264047533430360dc1b60448201526064016106b3565b7f6c9a6c4a39284e37ed1cf53d337577d14212a4870fb976a4366c693b939918d555565b600160008190526020527fcc69885fda6bcc1a4ace058b4a62bf5e179ea78fd58a1ccd71c22cc9b688792f546001600160a01b0316156124605760405162461bcd60e51b8152602060048201526005602482015264047533130360dc1b60448201526064016106b3565b6001600081905260208190527fcc69885fda6bcc1a4ace058b4a62bf5e179ea78fd58a1ccd71c22cc9b688792f80546001600160a01b03191690911790556001600160a01b038216156107ac57813b6124e35760405162461bcd60e51b815260206004820152600560248201526423a998181960d91b60448201526064016106b3565b6124f4826000836001600019611ff3565b6107ac5760405162461bcd60e51b8152602060048201526005602482015264047533030360dc1b60448201526064016106b3565b606060007fbb8310d486368db6bd6f849402fdd73ad53d316b5a4b2644ad6efe0f941286d860001b8d8d8d8d60405161256292919061314a565b604051908190038120612588949392918e908e908e908e908e908e908e9060200161315a565b60408051601f1981840301815291905280516020909101209050601960f81b600160f81b6125b4611c5c565b6040516001600160f81b031993841660208201529290911660218301526022820152604281018290526062016040516020818303038152906040529150509b9a5050505050505050505050565b60008061260e8385613004565b905083811015611e8a57600080fd5b604080516001600160a01b03841660248201526044808201849052825180830390910181526064909101909152602080820180516001600160e01b031663a9059cbb60e01b1781528251600093929184919082896127105a03f13d801561268f576020811461269757600093506126a2565b8193506126a2565b600051158215171593505b5050509392505050565b6001600160a01b03811681146126c157600080fd5b50565b80356126cf816126ac565b919050565b600080604083850312156126e757600080fd5b82356126f2816126ac565b946020939093013593505050565b634e487b7160e01b600052604160045260246000fd5b600082601f83011261272757600080fd5b813567ffffffffffffffff8082111561274257612742612700565b604051601f8301601f19908116603f0116810190828211818310171561276a5761276a612700565b8160405283815286602085880101111561278357600080fd5b836020870160208301376000602085830101528094505050505092915050565b600080600080608085870312156127b957600080fd5b84356127c4816126ac565b935060208501359250604085013567ffffffffffffffff8111156127e757600080fd5b6127f387828801612716565b949793965093946060013593505050565b60006020828403121561281657600080fd5b8135611e8a816126ac565b8035600281106126cf57600080fd5b6000806000806080858703121561284657600080fd5b8435612851816126ac565b935060208501359250604085013567ffffffffffffffff81111561287457600080fd5b61288087828801612716565b92505061288f60608601612821565b905092959194509250565b6000815180845260005b818110156128c0576020818501810151868301820152016128a4565b506000602082860101526020601f19601f83011685010191505092915050565b821515815260406020820152600061206c604083018461289a565b6000806040838503121561290e57600080fd5b50508035926020909101359150565b602081526000611e8a602083018461289a565b60006020828403121561294257600080fd5b5035919050565b60008083601f84011261295b57600080fd5b50813567ffffffffffffffff81111561297357600080fd5b60208301915083602082850101111561298b57600080fd5b9250929050565b60008060008060008060008060008060006101408c8e0312156129b457600080fd5b6129bd8c6126c4565b9a5060208c0135995067ffffffffffffffff8060408e013511156129e057600080fd5b6129f08e60408f01358f01612949565b909a509850612a0160608e01612821565b975060808d0135965060a08d0135955060c08d01359450612a2460e08e016126c4565b9350612a336101008e016126c4565b9250806101208e01351115612a4757600080fd5b50612a598d6101208e01358e01612716565b90509295989b509295989b9093969950565b600081518084526020808501945080840160005b83811015612aa45781516001600160a01b031687529582019590820190600101612a7f565b509495945050505050565b602081526000611e8a6020830184612a6b565b60008060408385031215612ad557600080fd5b8235612ae0816126ac565b9150602083013567ffffffffffffffff811115612afc57600080fd5b612b0885828601612716565b9150509250929050565b6000806000806000806000806000806101008b8d031215612b3257600080fd5b8a3567ffffffffffffffff80821115612b4a57600080fd5b818d0191508d601f830112612b5e57600080fd5b813581811115612b6d57600080fd5b8e60208260051b8501011115612b8257600080fd5b60208381019d50909b508d01359950612b9d60408e016126c4565b985060608d0135915080821115612bb357600080fd5b50612bc08d828e01612949565b9097509550612bd3905060808c016126c4565b9350612be160a08c016126c4565b925060c08b01359150612bf660e08c016126c4565b90509295989b9194979a5092959850565b604081526000612c1a6040830185612a6b565b905060018060a01b03831660208301529392505050565b60008060008060008060008060008060006101408c8e031215612c5357600080fd5b8b35612c5e816126ac565b9a5060208c0135995060408c013567ffffffffffffffff811115612c8157600080fd5b612c8d8e828f01612949565b909a509850612ca0905060608d01612821565b965060808c0135955060a08c0135945060c08c0135935060e08c0135612cc5816126ac565b92506101008c0135612cd6816126ac565b809250506101208c013590509295989b509295989b9093969950565b60008060408385031215612d0557600080fd5b8235612d10816126ac565b91506020830135612d20816126ac565b809150509250929050565b600080600060608486031215612d4057600080fd5b8335612d4b816126ac565b92506020840135612d5b816126ac565b91506040840135612d6b816126ac565b809150509250925092565b60008060408385031215612d8957600080fd5b82359150602083013567ffffffffffffffff811115612afc57600080fd5b600080600060608486031215612dbc57600080fd5b8335612dc7816126ac565b92506020840135612dd7816126ac565b929592945050506040919091013590565b602080825260059082015264475332303360d81b604082015260600190565b60208082526005908201526411d4cc8c0d60da1b604082015260600190565b634e487b7160e01b600052601160045260246000fd5b600060018201612e4e57612e4e612e26565b5060010190565b60ff8281168282160390811115610b0e57610b0e612e26565b634e487b7160e01b600052602160045260246000fd5b60028110612ea257634e487b7160e01b600052602160045260246000fd5b9052565b600060018060a01b03808816835286602084015260a06040840152612ece60a084018761289a565b9150612edd6060840186612e84565b8084166080840152509695505050505050565b600060208284031215612f0257600080fd5b5051919050565b8082028115828204841417610b0e57610b0e612e26565b602080825260059082015264475332303160d81b604082015260600190565b6001600160a01b038d168152602081018c90526101606040820181905281018a905260006101808b8d828501376000838d01820152601f8c01601f19168301612f8b606085018d612e84565b8a60808501528960a08501528860c0850152612fb260e08501896001600160a01b03169052565b6001600160a01b0387166101008501528184820301610120850152612fd98282018761289a565b92505050612ff36101408301846001600160a01b03169052565b9d9c50505050505050505050505050565b80820180821115610b0e57610b0e612e26565b60008261303457634e487b7160e01b600052601260045260246000fd5b500490565b81810381811115610b0e57610b0e612e26565b634e487b7160e01b600052603260045260246000fd5b6080808252810185905260008660a08301825b888110156130a5578235613088816126ac565b6001600160a01b0316825260209283019290910190600101613075565b50602084019690965250506001600160a01b039283166040820152911660609091015292915050565b6000602082840312156130e057600080fd5b81518015158114611e8a57600080fd5b6000816130ff576130ff612e26565b506000190190565b82815260406020820152600061206c604083018461289a565b60006020828403121561313257600080fd5b81516001600160e01b031981168114611e8a57600080fd5b8183823760009101908152919050565b8b81526001600160a01b038b81166020830152604082018b9052606082018a905261016082019061318e608084018b612e84565b60a083019890985260c082019690965260e081019490945291851661010084015290931661012082015261014001919091529594505050505056fea26469706673582212204ec851bd1af47c13d841ef3a1717cafef6f6b40ff8dd6c3a7d345d23ee6c29d264736f6c63430008110033",
    "linkReferences": {}
  },
  "methodIdentifiers": {
    "VERSION()": "ffa1ad74",
    "addOwnerWithThreshold(address,uint256)": "0d582f13",
    "approveHash(bytes32)": "d4d9bdcd",
    "approvedHashes(address,bytes32)": "7d832974",
    "changeThreshold(uint256)": "694e80c3",
    "checkNSignatures(address,bytes32,bytes,uint256)": "1fcac7f3",
    "checkSignatures(bytes32,bytes)": "ed516d51",
    "disableModule(address,address)": "e009cfde",
    "domainSeparator()": "f698da25",
    "enableModule(address)": "610b5925",
    "execTransaction(address,uint256,bytes,uint8,uint256,uint256,uint256,address,address,bytes)": "6a761202",
    "execTransactionFromModule(address,uint256,bytes,uint8)": "468721a7",
    "execTransactionFromModuleReturnData(address,uint256,bytes,uint8)": "5229073f",
    "getModulesPaginated(address,uint256)": "cc2f8452",
    "getOwners()": "a0e67e2b",
    "getStorageAt(uint256,uint256)": "5624b25b",
    "getThreshold()": "e75235b8",
    "getTransactionHash(address,uint256,bytes,uint8,uint256,uint256,uint256,address,address,uint256)": "d8d11f78",
    "isModuleEnabled(address)": "2d9ad53d",
    "isOwner(address)": "2f54bf6e",
    "nonce()": "affed0e0",
    "removeOwner(address,address,uint256)": "f8dc5dd9",
    "setFallbackHandler(address)": "f08a0323",
    "setGuard(address)": "e19a9dd9",
    "setup(address[],uint256,address,bytes,address,address,uint256,address)": "b63e800d",
    "signedMessages(bytes32)": "5ae6bd37",
    "simulateAndRevert(address,bytes)": "b4faba09",
    "swapOwner(address,address,address)": "e318b52b"
  },
  "id": 20
}